:020000040000FA
:060000000A128A11122809
:10000800FE00030E83120313A1000408A2000A08CD
:10001800A3007F08A4000A128A1135280A128A113F
:10002800152883134330FD000530FE00BC30FF0067
:10003800333084000A128A119A250A128A11C301E0
:10004800C401C501C601C701C801C901CA01CB0164
:10005800CC01CD01CE01FC01FD0183010A128A11F8
:1000680054290B1D3828392820290B110630810006
:100078000130CD070318CE0A0030CE074E08803A6B
:10008800FF0081307F02031D4B28F4304D02031C12
:100098004E284F28202983120313CD01CE01400397
:1000A800031D57285828C9280130D0020130CF0233
:1000B8007C08031D6028612872285008031D6528E4
:1000C800662872280A128A1121260A128A11FC014E
:1000D800FC0A0A128A1142260A128A117C03031D9D
:1000E800762877288E28831203135008031D7D284D
:1000F8007E288E280A128A11F4250A128A110230E3
:1001080083120313A0002008FC000A128A11372664
:100118000A128A1102307C06031D93289428AB2802
:10012800831203134F08031D9A289B28AB280A1231
:100138008A1116260A128A11033083120313A000AB
:100148002008FC000A128A112C260A128A11033090
:100158007C06031DB028B128C328831203134F0857
:10016800031DB728B828C3280A128A11E8250A12DD
:100178008A11FC010A128A110B260A128A110A1224
:100188008A11F2220A128A1120293F03031DCD2861
:10019800CE28F728BF010A128A114D260A128A11A1
:1001A8000A3083120313A0002008C3000A30A000FD
:1001B8002008C4000A30A0002008C5000A30A000AA
:1001C8002008C6000A30A0002008C7000A30A00096
:1001D8002008C8000A30A0002008C9000A30A00082
:1001E8002008CA002029BF01BF0A0A128A1158260E
:1001F8000A128A110B3083120313A0002008C300CF
:100208000B30A0002008C4000B30A0002008C50057
:100218000B30A0002008C6000B30A0002008C70043
:100228000B30A0002008C8000B30A0002008C9002F
:100238000B30A0002008CA00831203130C1C2529C8
:10024800262947290C1032308E00FF308F000130EC
:10025800CB070318CC0A0030CC074C08803AFF00C3
:1002680080307F02031D3A2905304B02031C3D29CB
:100278003E29472983120313CB01CC010A128A11A4
:1002880029250A128A11831203132408FF00230860
:100298008A0022088400210E8300FE0E7E0E0900CB
:1002A8008316031381130F309F0007309C008801C9
:1002B8008701C1308600850189010A128A11A925A2
:1002C8000A128A11083083120313B1003108C300DF
:1002D8000830B1003108C4000830B1003108C50049
:1002E8000830B1003108C6000830B1003108C70035
:1002F8000830B1003108C8000830B1003108C90021
:100308000830B1003108CA008501890186010A1246
:100318008A1100260A128A110A128A11DC250A1289
:100328008A110A128A113F220A128A11FC010A1242
:100338008A11CC250A128A110A128A1180250A12FA
:100348008A1183120313B1003108B2003203031D6E
:10035800AE29AF29EE29C001C00A8B121430B100B2
:100368003108C2001430B1003108C1000A128A11E4
:1003780000260A128A110A128A11DC250A128A1129
:100388000A128A113F220A128A11FC010A308312CA
:100398000313B1003108C3000A30B1003108C400AA
:1003A8000A30B1003108C5000A30B1003108C60072
:1003B8000A30B1003108C7000A30B1003108C8005E
:1003C8000A30B1003108C9000A30B1003108CA004A
:1003D8008B16A02902303206031DF329F429332A8B
:1003E800C001C00A8B121E30B1003108C2001E3095
:1003F800B1003108C1000A128A1100260A128A11B6
:100408000A128A11DC250A128A110A128A113F225D
:100418000A128A11FC010A3083120313B100310851
:10042800C3000A30B1003108C4000A30B1003108F5
:10043800C5000A30B1003108C6000A30B1003108E1
:10044800C7000A30B1003108C8000A30B1003108CD
:10045800C9000A30B1003108CA008B16A029033040
:100468003206031D382A392A3B2AC001A029A029AF
:100478000A128A1112280A3083120313A5000030C9
:10048800A6005008AE00AF012E08A7002F08A8004C
:100498000A128A11A5230A128A1183120313250846
:1004A800B0003008C3000A30A5000030A60050088C
:1004B800AE00AF012E08A7002F08A8000A128A1163
:1004C80075240A128A11831203132508B000300814
:1004D800C4000A30A5000030A6005008AE00AF01E5
:1004E8002E08A7002F08A8000A128A11A5230A12AD
:1004F8008A11831203132508B0003008C5000A309A
:10050800A5000030A6005008AE00AF012E08A700D5
:100518002F08A8000A128A1175240A128A11831258
:1005280003132508B0003008C6000A30A5000030C3
:10053800A6004F08AE00AF012E08A7002F08A8009C
:100548000A128A11A5230A128A1183120313250895
:10055800B0003008C7000A30A5000030A6004F08D8
:10056800AE00AF012E08A7002F08A8000A128A11B2
:1005780075240A128A11831203132508B000300863
:10058800C8000A30A5000030A6004F08AE00AF0131
:100598002E08A7002F08A8000A128A11A5230A12FC
:1005A8008A11831203132508B0003008C9000A30E5
:1005B800A5000030A6004F08AE00AF012E08A70026
:1005C8002F08A8000A128A1175240A128A118312A8
:1005D80003132508B0003008CA0008000A30F000EC
:1005E8000030F100831203135008F900FA0179086A
:1005F800F2007A08F3000A128A110E240A128A11EC
:100608007008FB007B0883120313C3000A30F00054
:100618000030F1005008F900FA017908F2007A0870
:10062800F3000A128A11D0240A128A117008FB00FA
:100638007B0883120313C4000A30F0000030F10075
:100648005008F900FA017908F2007A08F3000A1252
:100658008A110E240A128A117008FB007B08831283
:100668000313C5000A30F0000030F1005008F9000B
:10067800FA017908F2007A08F3000A128A11D024E4
:100688000A128A117008FB007B0883120313C60044
:100698000A30F0000030F1004F08F900FA0179083B
:1006A800F2007A08F3000A128A110E240A128A113B
:1006B8007008FB007B0883120313C7000A30F000A0
:1006C8000030F1004F08F900FA017908F2007A08C1
:1006D800F3000A128A11D0240A128A117008FB004A
:1006E8007B0883120313C8000A30F0000030F100C1
:1006F8004F08F900FA017908F2007A08F3000A12A3
:100708008A110E240A128A117008FB007B088312D2
:100718000313C9000A30F0000030F1004F08F90057
:10072800FA017908F2007A08F3000A128A11D02433
:100738000A128A117008FB007B0883120313CA008F
:10074800080083120313AB01A61FAB2BAC2BB32BF2
:10075800A509A609A50A0319A60AAB01AB0AA81F91
:10076800B62BB72BC02BA709A809A70A0319A80AF3
:100778000130A9002908AB06AC01AD012508260403
:100788000319C72BC82BFF2BAA01AA0AD62B0130A5
:100798000310A50DA60DFF3E031DCC2B0130A900AB
:1007A8002908AA07A61FD92BDA2BCB2B0130031057
:1007B800AC0DAD0DFF3E031DDB2B26082802031DE3
:1007C800E72B25082702031CEA2BEB2BF22B250825
:1007D800A7022608031CA803A8022C140130031042
:1007E800A60CA50CFF3E031DF32B0130AA02031D26
:1007F800FE2BFF2BDA2B2B080319032C042C092CB6
:10080800AC09AD09AC0A0319AD0A2D08A6002C08DD
:10081800A5000800F601F11F122C132C1A2CF00960
:10082800F109F00A0319F10AF601F60AF31F1D2C63
:100838001E2C272CF209F309F20A0319F30A0130D6
:10084800F4007408F606F701F8017008710403193A
:100858002E2C2F2C662CF501F50A3D2C01300310A7
:10086800F00DF10DFF3E031D332C0130F400740828
:10087800F507F11F402C412C322C01300310F70DE5
:10088800F80DFF3E031D422C71087302031D4E2C08
:1008980070087202031C512C522C592C7008F20259
:1008A8007108031CF303F302771401300310F10CF1
:1008B800F00CFF3E031D5A2C0130F502031D652C78
:1008C800662C412C760803196A2C6B2C702CF709BE
:1008D800F809F70A0319F80A7808F1007708F00010
:1008E800080083120313AB01A81F7B2C7C2C832CDC
:1008F800A709A809A70A0319A80AAB01AB0AA61FEA
:10090800862C872C8C2CA509A609A50A0319A60AEA
:10091800250826040319912C922CC12CAA01AA0A95
:10092800A02C01300310A50DA60DFF3E031D962C2B
:100938000130A9002908AA07A61FA32CA42C952CCE
:1009480026082802031DAA2C25082702031CAD2C03
:10095800AE2CB42C2508A7022608031CA803A8025D
:1009680001300310A60CA50CFF3E031DB52C013069
:10097800AA02031DC02CC12CA42C2B080319C52CBA
:10098800C62CCB2CA709A809A70A0319A80A280866
:10099800A6002708A5000800F601F31FD42CD52CC3
:1009A800DC2CF209F309F20A0319F30AF601F60A34
:1009B800F11FDF2CE02CE52CF009F109F00A0319EE
:1009C800F10A700871040319EA2CEB2C1A2DF501B1
:1009D800F50AF92C01300310F00DF10DFF3E031D4F
:1009E800EF2C0130F4007408F507F11FFC2CFD2CE6
:1009F800EE2C71087302031D032D70087202031C8C
:100A0800062D072D0D2D7008F2027108031CF30343
:100A1800F30201300310F10CF00CFF3E031D0E2D04
:100A28000130F502031D192D1A2DFD2C7608031926
:100A38001E2D1F2D242DF209F309F20A0319F30ABA
:100A48007308F1007208F00008000130F000700827
:100A5800FD0708307D06031D322D332D342DFD0191
:100A6800FF308312031387007D08433E84008313FD
:100A78000008333E8400000888007D08031D452DCA
:100A8800462D482D07107F2D7D03031D4C2D4D2D20
:100A98004F2D87107F2D02307D06031D542D552DB7
:100AA800572D07117F2D03307D06031D5C2D5D2D0D
:100AB8005F2D87117F2D04307D06031D642D652D64
:100AC800672D07127F2D05307D06031D6C2D6D2DBA
:100AD8006F2D87127F2D06307D06031D742D752D11
:100AE800772D07137F2D07307D06031D7C2D7D2D67
:100AF8007F2D87137F2D0800831203130618852D79
:100B0800862D882D0130952D061B8B2D8C2D8E2D35
:100B18000230952D861B912D922D942D0330952D05
:100B2800003008007E088A007F0882000A128A11B5
:100B380096250A128A118000840A04087D06031982
:100B48000034FF0A0319FE0A9A2D8312031390102A
:100B580090161016831603130C140B178B17831299
:100B680003130C1032308E00FF308F001014080071
:100B7800C034F934A434B034993492348234F8341B
:100B880080349034BF34FF340134013414341434C5
:100B98008316031381128111011181140114063087
:100BA8008312031381000B118B160B178B17080088
:100BB800831203134208A5002508D0004208033E0B
:100BC800A5002508CF000800831203134208F0008F
:100BD8007008D0004208033EF0007008CF000800FB
:100BE800831203134108033EF0007008D000410847
:100BF800F0007008CF000800FB3083120313850053
:100C0800FC30890086140611861606160800FB308B
:100C1800831203138500FC3089008614061186169A
:100C2800061608000330F000700883120313D00082
:100C38000330F0007008CF0008000330F00070089F
:100C480083120313D0000330F0007008CF000800AF
:100C5800F630831203138500F330890086140615D5
:100C6800861206160800F630831203138500FF303B
:100C7800890086100615861606120800DD308312D4
:100C880003138500FD3089008614061186160616A2
:100C98000800DD30831203138500FB3089008614B9
:100CA8000615861206160800FF3083120313850006
:0E0CB800FF3089008614061586160616080001
:02400E003A3F37
:00000001FF
